{
  "contracts/IoTAccessControl.sol": {
    "IoTAccessControl": {
      "abi": [
        {
          "anonymous": false,
          "inputs": [
            {
              "indexed": false,
              "internalType": "bytes32",
              "name": "deviceId",
              "type": "bytes32"
            },
            {
              "indexed": false,
              "internalType": "address",
              "name": "owner",
              "type": "address"
            }
          ],
          "name": "DeviceRegistered",
          "type": "event"
        },
        {
          "inputs": [
            {
              "internalType": "bytes32",
              "name": "",
              "type": "bytes32"
            }
          ],
          "name": "devices",
          "outputs": [
            {
              "internalType": "address",
              "name": "owner",
              "type": "address"
            },
            {
              "internalType": "bool",
              "name": "isRegistered",
              "type": "bool"
            }
          ],
          "stateMutability": "view",
          "type": "function"
        },
        {
          "inputs": [
            {
              "internalType": "bytes32",
              "name": "deviceId",
              "type": "bytes32"
            }
          ],
          "name": "getDeviceOwner",
          "outputs": [
            {
              "internalType": "address",
              "name": "",
              "type": "address"
            }
          ],
          "stateMutability": "view",
          "type": "function"
        },
        {
          "inputs": [
            {
              "internalType": "bytes32",
              "name": "deviceId",
              "type": "bytes32"
            }
          ],
          "name": "isDeviceRegistered",
          "outputs": [
            {
              "internalType": "bool",
              "name": "",
              "type": "bool"
            }
          ],
          "stateMutability": "view",
          "type": "function"
        },
        {
          "inputs": [
            {
              "internalType": "bytes32",
              "name": "deviceId",
              "type": "bytes32"
            }
          ],
          "name": "registerDevice",
          "outputs": [],
          "stateMutability": "nonpayable",
          "type": "function"
        }
      ],
      "evm": {
        "bytecode": {
          "linkReferences": {},
          "object": "6080604052348015600f57600080fd5b506105118061001f6000396000f3fe608060405234801561001057600080fd5b506004361061004c5760003560e01c806316f936c514610051578063882ec35a14610081578063c5c400de1461009d578063f0626a00146100ce575b600080fd5b61006b6004803603810190610066919061033e565b6100fe565b60405161007891906103ac565b60405180910390f35b61009b6004803603810190610096919061033e565b61013d565b005b6100b760048036038101906100b2919061033e565b610286565b6040516100c59291906103e2565b60405180910390f35b6100e860048036038101906100e3919061033e565b6102d7565b6040516100f5919061040b565b60405180910390f35b600080600083815260200190815260200160002060000160009054906101000a900473ffffffffffffffffffffffffffffffffffffffff169050919050565b60008082815260200190815260200160002060000160149054906101000a900460ff16156101a0576040517f08c379a000000000000000000000000000000000000000000000000000000000815260040161019790610483565b60405180910390fd5b60405180604001604052803373ffffffffffffffffffffffffffffffffffffffff1681526020016001151581525060008083815260200190815260200160002060008201518160000160006101000a81548173ffffffffffffffffffffffffffffffffffffffff021916908373ffffffffffffffffffffffffffffffffffffffff16021790555060208201518160000160146101000a81548160ff0219169083151502179055509050507fd87fed90c1b7378fc9b09cc6f641d001f9d1fdf09b533c90195d4204209d4b83813360405161027b9291906104b2565b60405180910390a150565b60006020528060005260406000206000915090508060000160009054906101000a900473ffffffffffffffffffffffffffffffffffffffff16908060000160149054906101000a900460ff16905082565b600080600083815260200190815260200160002060000160149054906101000a900460ff169050919050565b600080fd5b6000819050919050565b61031b81610308565b811461032657600080fd5b50565b60008135905061033881610312565b92915050565b60006020828403121561035457610353610303565b5b600061036284828501610329565b91505092915050565b600073ffffffffffffffffffffffffffffffffffffffff82169050919050565b60006103968261036b565b9050919050565b6103a68161038b565b82525050565b60006020820190506103c1600083018461039d565b92915050565b60008115159050919050565b6103dc816103c7565b82525050565b60006040820190506103f7600083018561039d565b61040460208301846103d3565b9392505050565b600060208201905061042060008301846103d3565b92915050565b600082825260208201905092915050565b7f44657669636520616c7265616479207265676973746572656400000000000000600082015250565b600061046d601983610426565b915061047882610437565b602082019050919050565b6000602082019050818103600083015261049c81610460565b9050919050565b6104ac81610308565b82525050565b60006040820190506104c760008301856104a3565b6104d4602083018461039d565b939250505056fea2646970667358221220b72147fe9f609d18c8f1ec6758af93f520b9766de5c8a03bcd3a70c15a4983f064736f6c634300081c0033",
          "opcodes": "PUSH1 0x80 PUSH1 0x40 MSTORE CALLVALUE DUP1 ISZERO PUSH1 0xF JUMPI PUSH1 0x0 DUP1 REVERT JUMPDEST POP PUSH2 0x511 DUP1 PUSH2 0x1F PUSH1 0x0 CODECOPY PUSH1 0x0 RETURN INVALID PUSH1 0x80 PUSH1 0x40 MSTORE CALLVALUE DUP1 ISZERO PUSH2 0x10 JUMPI PUSH1 0x0 DUP1 REVERT JUMPDEST POP PUSH1 0x4 CALLDATASIZE LT PUSH2 0x4C JUMPI PUSH1 0x0 CALLDATALOAD PUSH1 0xE0 SHR DUP1 PUSH4 0x16F936C5 EQ PUSH2 0x51 JUMPI DUP1 PUSH4 0x882EC35A EQ PUSH2 0x81 JUMPI DUP1 PUSH4 0xC5C400DE EQ PUSH2 0x9D JUMPI DUP1 PUSH4 0xF0626A00 EQ PUSH2 0xCE JUMPI JUMPDEST PUSH1 0x0 DUP1 REVERT JUMPDEST PUSH2 0x6B PUSH1 0x4 DUP1 CALLDATASIZE SUB DUP2 ADD SWAP1 PUSH2 0x66 SWAP2 SWAP1 PUSH2 0x33E JUMP JUMPDEST PUSH2 0xFE JUMP JUMPDEST PUSH1 0x40 MLOAD PUSH2 0x78 SWAP2 SWAP1 PUSH2 0x3AC JUMP JUMPDEST PUSH1 0x40 MLOAD DUP1 SWAP2 SUB SWAP1 RETURN JUMPDEST PUSH2 0x9B PUSH1 0x4 DUP1 CALLDATASIZE SUB DUP2 ADD SWAP1 PUSH2 0x96 SWAP2 SWAP1 PUSH2 0x33E JUMP JUMPDEST PUSH2 0x13D JUMP JUMPDEST STOP JUMPDEST PUSH2 0xB7 PUSH1 0x4 DUP1 CALLDATASIZE SUB DUP2 ADD SWAP1 PUSH2 0xB2 SWAP2 SWAP1 PUSH2 0x33E JUMP JUMPDEST PUSH2 0x286 JUMP JUMPDEST PUSH1 0x40 MLOAD PUSH2 0xC5 SWAP3 SWAP2 SWAP1 PUSH2 0x3E2 JUMP JUMPDEST PUSH1 0x40 MLOAD DUP1 SWAP2 SUB SWAP1 RETURN JUMPDEST PUSH2 0xE8 PUSH1 0x4 DUP1 CALLDATASIZE SUB DUP2 ADD SWAP1 PUSH2 0xE3 SWAP2 SWAP1 PUSH2 0x33E JUMP JUMPDEST PUSH2 0x2D7 JUMP JUMPDEST PUSH1 0x40 MLOAD PUSH2 0xF5 SWAP2 SWAP1 PUSH2 0x40B JUMP JUMPDEST PUSH1 0x40 MLOAD DUP1 SWAP2 SUB SWAP1 RETURN JUMPDEST PUSH1 0x0 DUP1 PUSH1 0x0 DUP4 DUP2 MSTORE PUSH1 0x20 ADD SWAP1 DUP2 MSTORE PUSH1 0x20 ADD PUSH1 0x0 KECCAK256 PUSH1 0x0 ADD PUSH1 0x0 SWAP1 SLOAD SWAP1 PUSH2 0x100 EXP SWAP1 DIV PUSH20 0xFFFFFFFFFFFFFFFFFFFFFFFFFFFFFFFFFFFFFFFF AND SWAP1 POP SWAP2 SWAP1 POP JUMP JUMPDEST PUSH1 0x0 DUP1 DUP3 DUP2 MSTORE PUSH1 0x20 ADD SWAP1 DUP2 MSTORE PUSH1 0x20 ADD PUSH1 0x0 KECCAK256 PUSH1 0x0 ADD PUSH1 0x14 SWAP1 SLOAD SWAP1 PUSH2 0x100 EXP SWAP1 DIV PUSH1 0xFF AND ISZERO PUSH2 0x1A0 JUMPI PUSH1 0x40 MLOAD PUSH32 0x8C379A000000000000000000000000000000000000000000000000000000000 DUP2 MSTORE PUSH1 0x4 ADD PUSH2 0x197 SWAP1 PUSH2 0x483 JUMP JUMPDEST PUSH1 0x40 MLOAD DUP1 SWAP2 SUB SWAP1 REVERT JUMPDEST PUSH1 0x40 MLOAD DUP1 PUSH1 0x40 ADD PUSH1 0x40 MSTORE DUP1 CALLER PUSH20 0xFFFFFFFFFFFFFFFFFFFFFFFFFFFFFFFFFFFFFFFF AND DUP2 MSTORE PUSH1 0x20 ADD PUSH1 0x1 ISZERO ISZERO DUP2 MSTORE POP PUSH1 0x0 DUP1 DUP4 DUP2 MSTORE PUSH1 0x20 ADD SWAP1 DUP2 MSTORE PUSH1 0x20 ADD PUSH1 0x0 KECCAK256 PUSH1 0x0 DUP3 ADD MLOAD DUP2 PUSH1 0x0 ADD PUSH1 0x0 PUSH2 0x100 EXP DUP2 SLOAD DUP2 PUSH20 0xFFFFFFFFFFFFFFFFFFFFFFFFFFFFFFFFFFFFFFFF MUL NOT AND SWAP1 DUP4 PUSH20 0xFFFFFFFFFFFFFFFFFFFFFFFFFFFFFFFFFFFFFFFF AND MUL OR SWAP1 SSTORE POP PUSH1 0x20 DUP3 ADD MLOAD DUP2 PUSH1 0x0 ADD PUSH1 0x14 PUSH2 0x100 EXP DUP2 SLOAD DUP2 PUSH1 0xFF MUL NOT AND SWAP1 DUP4 ISZERO ISZERO MUL OR SWAP1 SSTORE POP SWAP1 POP POP PUSH32 0xD87FED90C1B7378FC9B09CC6F641D001F9D1FDF09B533C90195D4204209D4B83 DUP2 CALLER PUSH1 0x40 MLOAD PUSH2 0x27B SWAP3 SWAP2 SWAP1 PUSH2 0x4B2 JUMP JUMPDEST PUSH1 0x40 MLOAD DUP1 SWAP2 SUB SWAP1 LOG1 POP JUMP JUMPDEST PUSH1 0x0 PUSH1 0x20 MSTORE DUP1 PUSH1 0x0 MSTORE PUSH1 0x40 PUSH1 0x0 KECCAK256 PUSH1 0x0 SWAP2 POP SWAP1 POP DUP1 PUSH1 0x0 ADD PUSH1 0x0 SWAP1 SLOAD SWAP1 PUSH2 0x100 EXP SWAP1 DIV PUSH20 0xFFFFFFFFFFFFFFFFFFFFFFFFFFFFFFFFFFFFFFFF AND SWAP1 DUP1 PUSH1 0x0 ADD PUSH1 0x14 SWAP1 SLOAD SWAP1 PUSH2 0x100 EXP SWAP1 DIV PUSH1 0xFF AND SWAP1 POP DUP3 JUMP JUMPDEST PUSH1 0x0 DUP1 PUSH1 0x0 DUP4 DUP2 MSTORE PUSH1 0x20 ADD SWAP1 DUP2 MSTORE PUSH1 0x20 ADD PUSH1 0x0 KECCAK256 PUSH1 0x0 ADD PUSH1 0x14 SWAP1 SLOAD SWAP1 PUSH2 0x100 EXP SWAP1 DIV PUSH1 0xFF AND SWAP1 POP SWAP2 SWAP1 POP JUMP JUMPDEST PUSH1 0x0 DUP1 REVERT JUMPDEST PUSH1 0x0 DUP2 SWAP1 POP SWAP2 SWAP1 POP JUMP JUMPDEST PUSH2 0x31B DUP2 PUSH2 0x308 JUMP JUMPDEST DUP2 EQ PUSH2 0x326 JUMPI PUSH1 0x0 DUP1 REVERT JUMPDEST POP JUMP JUMPDEST PUSH1 0x0 DUP2 CALLDATALOAD SWAP1 POP PUSH2 0x338 DUP2 PUSH2 0x312 JUMP JUMPDEST SWAP3 SWAP2 POP POP JUMP JUMPDEST PUSH1 0x0 PUSH1 0x20 DUP3 DUP5 SUB SLT ISZERO PUSH2 0x354 JUMPI PUSH2 0x353 PUSH2 0x303 JUMP JUMPDEST JUMPDEST PUSH1 0x0 PUSH2 0x362 DUP5 DUP3 DUP6 ADD PUSH2 0x329 JUMP JUMPDEST SWAP2 POP POP SWAP3 SWAP2 POP POP JUMP JUMPDEST PUSH1 0x0 PUSH20 0xFFFFFFFFFFFFFFFFFFFFFFFFFFFFFFFFFFFFFFFF DUP3 AND SWAP1 POP SWAP2 SWAP1 POP JUMP JUMPDEST PUSH1 0x0 PUSH2 0x396 DUP3 PUSH2 0x36B JUMP JUMPDEST SWAP1 POP SWAP2 SWAP1 POP JUMP JUMPDEST PUSH2 0x3A6 DUP2 PUSH2 0x38B JUMP JUMPDEST DUP3 MSTORE POP POP JUMP JUMPDEST PUSH1 0x0 PUSH1 0x20 DUP3 ADD SWAP1 POP PUSH2 0x3C1 PUSH1 0x0 DUP4 ADD DUP5 PUSH2 0x39D JUMP JUMPDEST SWAP3 SWAP2 POP POP JUMP JUMPDEST PUSH1 0x0 DUP2 ISZERO ISZERO SWAP1 POP SWAP2 SWAP1 POP JUMP JUMPDEST PUSH2 0x3DC DUP2 PUSH2 0x3C7 JUMP JUMPDEST DUP3 MSTORE POP POP JUMP JUMPDEST PUSH1 0x0 PUSH1 0x40 DUP3 ADD SWAP1 POP PUSH2 0x3F7 PUSH1 0x0 DUP4 ADD DUP6 PUSH2 0x39D JUMP JUMPDEST PUSH2 0x404 PUSH1 0x20 DUP4 ADD DUP5 PUSH2 0x3D3 JUMP JUMPDEST SWAP4 SWAP3 POP POP POP JUMP JUMPDEST PUSH1 0x0 PUSH1 0x20 DUP3 ADD SWAP1 POP PUSH2 0x420 PUSH1 0x0 DUP4 ADD DUP5 PUSH2 0x3D3 JUMP JUMPDEST SWAP3 SWAP2 POP POP JUMP JUMPDEST PUSH1 0x0 DUP3 DUP3 MSTORE PUSH1 0x20 DUP3 ADD SWAP1 POP SWAP3 SWAP2 POP POP JUMP JUMPDEST PUSH32 0x44657669636520616C7265616479207265676973746572656400000000000000 PUSH1 0x0 DUP3 ADD MSTORE POP JUMP JUMPDEST PUSH1 0x0 PUSH2 0x46D PUSH1 0x19 DUP4 PUSH2 0x426 JUMP JUMPDEST SWAP2 POP PUSH2 0x478 DUP3 PUSH2 0x437 JUMP JUMPDEST PUSH1 0x20 DUP3 ADD SWAP1 POP SWAP2 SWAP1 POP JUMP JUMPDEST PUSH1 0x0 PUSH1 0x20 DUP3 ADD SWAP1 POP DUP2 DUP2 SUB PUSH1 0x0 DUP4 ADD MSTORE PUSH2 0x49C DUP2 PUSH2 0x460 JUMP JUMPDEST SWAP1 POP SWAP2 SWAP1 POP JUMP JUMPDEST PUSH2 0x4AC DUP2 PUSH2 0x308 JUMP JUMPDEST DUP3 MSTORE POP POP JUMP JUMPDEST PUSH1 0x0 PUSH1 0x40 DUP3 ADD SWAP1 POP PUSH2 0x4C7 PUSH1 0x0 DUP4 ADD DUP6 PUSH2 0x4A3 JUMP JUMPDEST PUSH2 0x4D4 PUSH1 0x20 DUP4 ADD DUP5 PUSH2 0x39D JUMP JUMPDEST SWAP4 SWAP3 POP POP POP JUMP INVALID LOG2 PUSH5 0x6970667358 0x22 SLT KECCAK256 0xB7 0x21 SELFBALANCE INVALID SWAP16 PUSH1 0x9D XOR 0xC8 CALL 0xEC PUSH8 0x58AF93F520B9766D 0xE5 0xC8 LOG0 EXTCODESIZE 0xCD GASPRICE PUSH17 0xC15A4983F064736F6C634300081C003300 "
        },
        "methodIdentifiers": {
          "devices(bytes32)": "c5c400de",
          "getDeviceOwner(bytes32)": "16f936c5",
          "isDeviceRegistered(bytes32)": "f0626a00",
          "registerDevice(bytes32)": "882ec35a"
        }
      }
    }
  }
}