{
  "_format": "hh-sol-artifact-1",
  "contractName": "IoTAccessControl",
  "sourceName": "contracts/IoTAccessControl.sol",
  "abi": [
    {
      "anonymous": false,
      "inputs": [
        {
          "indexed": false,
          "internalType": "bytes32",
          "name": "deviceId",
          "type": "bytes32"
        },
        {
          "indexed": false,
          "internalType": "address",
          "name": "owner",
          "type": "address"
        }
      ],
      "name": "DeviceRegistered",
      "type": "event"
    },
    {
      "inputs": [
        {
          "internalType": "bytes32",
          "name": "",
          "type": "bytes32"
        }
      ],
      "name": "devices",
      "outputs": [
        {
          "internalType": "address",
          "name": "owner",
          "type": "address"
        },
        {
          "internalType": "bool",
          "name": "isRegistered",
          "type": "bool"
        }
      ],
      "stateMutability": "view",
      "type": "function"
    },
    {
      "inputs": [
        {
          "internalType": "bytes32",
          "name": "deviceId",
          "type": "bytes32"
        }
      ],
      "name": "getDeviceOwner",
      "outputs": [
        {
          "internalType": "address",
          "name": "",
          "type": "address"
        }
      ],
      "stateMutability": "view",
      "type": "function"
    },
    {
      "inputs": [
        {
          "internalType": "bytes32",
          "name": "deviceId",
          "type": "bytes32"
        }
      ],
      "name": "isDeviceRegistered",
      "outputs": [
        {
          "internalType": "bool",
          "name": "",
          "type": "bool"
        }
      ],
      "stateMutability": "view",
      "type": "function"
    },
    {
      "inputs": [
        {
          "internalType": "bytes32",
          "name": "deviceId",
          "type": "bytes32"
        }
      ],
      "name": "registerDevice",
      "outputs": [],
      "stateMutability": "nonpayable",
      "type": "function"
    }
  ],
  "bytecode": "0x6080604052348015600f57600080fd5b506105118061001f6000396000f3fe608060405234801561001057600080fd5b506004361061004c5760003560e01c806316f936c514610051578063882ec35a14610081578063c5c400de1461009d578063f0626a00146100ce575b600080fd5b61006b6004803603810190610066919061033e565b6100fe565b60405161007891906103ac565b60405180910390f35b61009b6004803603810190610096919061033e565b61013d565b005b6100b760048036038101906100b2919061033e565b610286565b6040516100c59291906103e2565b60405180910390f35b6100e860048036038101906100e3919061033e565b6102d7565b6040516100f5919061040b565b60405180910390f35b600080600083815260200190815260200160002060000160009054906101000a900473ffffffffffffffffffffffffffffffffffffffff169050919050565b60008082815260200190815260200160002060000160149054906101000a900460ff16156101a0576040517f08c379a000000000000000000000000000000000000000000000000000000000815260040161019790610483565b60405180910390fd5b60405180604001604052803373ffffffffffffffffffffffffffffffffffffffff1681526020016001151581525060008083815260200190815260200160002060008201518160000160006101000a81548173ffffffffffffffffffffffffffffffffffffffff021916908373ffffffffffffffffffffffffffffffffffffffff16021790555060208201518160000160146101000a81548160ff0219169083151502179055509050507fd87fed90c1b7378fc9b09cc6f641d001f9d1fdf09b533c90195d4204209d4b83813360405161027b9291906104b2565b60405180910390a150565b60006020528060005260406000206000915090508060000160009054906101000a900473ffffffffffffffffffffffffffffffffffffffff16908060000160149054906101000a900460ff16905082565b600080600083815260200190815260200160002060000160149054906101000a900460ff169050919050565b600080fd5b6000819050919050565b61031b81610308565b811461032657600080fd5b50565b60008135905061033881610312565b92915050565b60006020828403121561035457610353610303565b5b600061036284828501610329565b91505092915050565b600073ffffffffffffffffffffffffffffffffffffffff82169050919050565b60006103968261036b565b9050919050565b6103a68161038b565b82525050565b60006020820190506103c1600083018461039d565b92915050565b60008115159050919050565b6103dc816103c7565b82525050565b60006040820190506103f7600083018561039d565b61040460208301846103d3565b9392505050565b600060208201905061042060008301846103d3565b92915050565b600082825260208201905092915050565b7f44657669636520616c7265616479207265676973746572656400000000000000600082015250565b600061046d601983610426565b915061047882610437565b602082019050919050565b6000602082019050818103600083015261049c81610460565b9050919050565b6104ac81610308565b82525050565b60006040820190506104c760008301856104a3565b6104d4602083018461039d565b939250505056fea2646970667358221220b72147fe9f609d18c8f1ec6758af93f520b9766de5c8a03bcd3a70c15a4983f064736f6c634300081c0033",
  "linkReferences": {},
  "deployedLinkReferences": {}
}